{
  "_format": "hh-sol-artifact-1",
  "contractName": "DigitalGuestbook",
  "sourceName": "contracts/guestbook.sol",
  "abi": [
    {
      "anonymous": false,
      "inputs": [
        {
          "indexed": true,
          "internalType": "address",
          "name": "sender",
          "type": "address"
        },
        {
          "indexed": true,
          "internalType": "uint256",
          "name": "id",
          "type": "uint256"
        },
        {
          "indexed": false,
          "internalType": "string",
          "name": "content",
          "type": "string"
        },
        {
          "indexed": false,
          "internalType": "uint256",
          "name": "timestamp",
          "type": "uint256"
        }
      ],
      "name": "MessageAdded",
      "type": "event"
    },
    {
      "inputs": [
        {
          "internalType": "string",
          "name": "_content",
          "type": "string"
        }
      ],
      "name": "addMessage",
      "outputs": [],
      "stateMutability": "nonpayable",
      "type": "function"
    },
    {
      "inputs": [
        {
          "internalType": "uint256",
          "name": "_index",
          "type": "uint256"
        }
      ],
      "name": "getMessage",
      "outputs": [
        {
          "internalType": "address",
          "name": "sender",
          "type": "address"
        },
        {
          "internalType": "string",
          "name": "content",
          "type": "string"
        },
        {
          "internalType": "uint256",
          "name": "timestamp",
          "type": "uint256"
        }
      ],
      "stateMutability": "view",
      "type": "function"
    },
    {
      "inputs": [],
      "name": "getMessageCount",
      "outputs": [
        {
          "internalType": "uint256",
          "name": "",
          "type": "uint256"
        }
      ],
      "stateMutability": "view",
      "type": "function"
    },
    {
      "inputs": [
        {
          "internalType": "uint256",
          "name": "",
          "type": "uint256"
        }
      ],
      "name": "messages",
      "outputs": [
        {
          "internalType": "address",
          "name": "sender",
          "type": "address"
        },
        {
          "internalType": "string",
          "name": "content",
          "type": "string"
        },
        {
          "internalType": "uint256",
          "name": "timestamp",
          "type": "uint256"
        }
      ],
      "stateMutability": "view",
      "type": "function"
    }
  ],
  "bytecode": "0x608060405234801561001057600080fd5b506109d4806100206000396000f3fe608060405234801561001057600080fd5b506004361061004c5760003560e01c80630d80fefd1461005157806331933916146100835780636a226a49146100a157806386f79edb146100bd575b600080fd5b61006b60048036038101906100669190610585565b6100ef565b60405161007a9392919061069b565b60405180910390f35b61008b6101d1565b60405161009891906106d9565b60405180910390f35b6100bb60048036038101906100b69190610829565b6101dd565b005b6100d760048036038101906100d29190610585565b61030d565b6040516100e69392919061069b565b60405180910390f35b600081815481106100ff57600080fd5b90600052602060002090600302016000915090508060000160009054906101000a900473ffffffffffffffffffffffffffffffffffffffff1690806001018054610148906108a1565b80601f0160208091040260200160405190810160405280929190818152602001828054610174906108a1565b80156101c15780601f10610196576101008083540402835291602001916101c1565b820191906000526020600020905b8154815290600101906020018083116101a457829003601f168201915b5050505050908060020154905083565b60008080549050905090565b6000808054905090506000429050600060405180606001604052803373ffffffffffffffffffffffffffffffffffffffff16815260200185815260200183815250908060018154018082558091505060019003906000526020600020906003020160009091909190915060008201518160000160006101000a81548173ffffffffffffffffffffffffffffffffffffffff021916908373ffffffffffffffffffffffffffffffffffffffff16021790555060208201518160010190805190602001906102aa929190610498565b50604082015181600201555050813373ffffffffffffffffffffffffffffffffffffffff167f8bf1b17af503ff45d474db5558e1d05aadd7ec90ac273934e96f35a845ced24885846040516103009291906108d3565b60405180910390a3505050565b60006060600080805490508410610359576040517f08c379a00000000000000000000000000000000000000000000000000000000081526004016103509061094f565b60405180910390fd5b600080858154811061036e5761036d61096f565b5b90600052602060002090600302016040518060600160405290816000820160009054906101000a900473ffffffffffffffffffffffffffffffffffffffff1673ffffffffffffffffffffffffffffffffffffffff1673ffffffffffffffffffffffffffffffffffffffff1681526020016001820180546103ed906108a1565b80601f0160208091040260200160405190810160405280929190818152602001828054610419906108a1565b80156104665780601f1061043b57610100808354040283529160200191610466565b820191906000526020600020905b81548152906001019060200180831161044957829003601f168201915b505050505081526020016002820154815250509050806000015181602001518260400151935093509350509193909250565b8280546104a4906108a1565b90600052602060002090601f0160209004810192826104c6576000855561050d565b82601f106104df57805160ff191683800117855561050d565b8280016001018555821561050d579182015b8281111561050c5782518255916020019190600101906104f1565b5b50905061051a919061051e565b5090565b5b8082111561053757600081600090555060010161051f565b5090565b6000604051905090565b600080fd5b600080fd5b6000819050919050565b6105628161054f565b811461056d57600080fd5b50565b60008135905061057f81610559565b92915050565b60006020828403121561059b5761059a610545565b5b60006105a984828501610570565b91505092915050565b600073ffffffffffffffffffffffffffffffffffffffff82169050919050565b60006105dd826105b2565b9050919050565b6105ed816105d2565b82525050565b600081519050919050565b600082825260208201905092915050565b60005b8381101561062d578082015181840152602081019050610612565b8381111561063c576000848401525b50505050565b6000601f19601f8301169050919050565b600061065e826105f3565b61066881856105fe565b935061067881856020860161060f565b61068181610642565b840191505092915050565b6106958161054f565b82525050565b60006060820190506106b060008301866105e4565b81810360208301526106c28185610653565b90506106d1604083018461068c565b949350505050565b60006020820190506106ee600083018461068c565b92915050565b600080fd5b600080fd5b7f4e487b7100000000000000000000000000000000000000000000000000000000600052604160045260246000fd5b61073682610642565b810181811067ffffffffffffffff82111715610755576107546106fe565b5b80604052505050565b600061076861053b565b9050610774828261072d565b919050565b600067ffffffffffffffff821115610794576107936106fe565b5b61079d82610642565b9050602081019050919050565b82818337600083830152505050565b60006107cc6107c784610779565b61075e565b9050828152602081018484840111156107e8576107e76106f9565b5b6107f38482856107aa565b509392505050565b600082601f8301126108105761080f6106f4565b5b81356108208482602086016107b9565b91505092915050565b60006020828403121561083f5761083e610545565b5b600082013567ffffffffffffffff81111561085d5761085c61054a565b5b610869848285016107fb565b91505092915050565b7f4e487b7100000000000000000000000000000000000000000000000000000000600052602260045260246000fd5b600060028204905060018216806108b957607f821691505b602082108114156108cd576108cc610872565b5b50919050565b600060408201905081810360008301526108ed8185610653565b90506108fc602083018461068c565b9392505050565b7f4d65737361676520696e646578206f7574206f6620626f756e64730000000000600082015250565b6000610939601b836105fe565b915061094482610903565b602082019050919050565b600060208201905081810360008301526109688161092c565b9050919050565b7f4e487b7100000000000000000000000000000000000000000000000000000000600052603260045260246000fdfea2646970667358221220f97c395be8b6787db9a0008aac8c62337ddc5f939e6d7e36cd394346ab6f21be64736f6c634300080a0033",
  "linkReferences": {},
  "deployedLinkReferences": {}
}